:020000040800F2
:10000000101100200D160008FB0E0008FD0E000860
:10001000FF0E0008010F0008030F00080000000099
:10002000000000000000000000000000050F0008B4
:10003000070F000800000000090F00080B0F000860
:10004000DB100008291600082D16000831160008DC
:1000500035160008391600080D0F00083D16000877
:100060003D0F00086D0F00089D0F000841160008A5
:1000700045160008491600084D16000851160008DC
:1000800055160008591600085D160008611600088C
:1000900065160008691600086D160008711600083C
:1000A00075160008791600087D16000881160008EC
:1000B00085160008891600088D160008911600089C
:1000C00095160008991600089D160008A11600084C
:1000D000A5160008850D0008A9160008AD16000831
:1000E000B1160008B5160008B9160008BD160008BC
:1000F000C1160008C5160008C9160008CD1600086C
:10010000D1160008D5160008D9160008DD1600081B
:10011000E1160008E5160008BD030008E91600080E
:10012000ED160008F1160008F5160008F91600088B
:1001300080B5894800F03AF9012000F001F801BDCE
:100140008649098808438549088070478449098899
:10015000084383490880704780B5002081490978A9
:10016000C90710D5804800F021F90220FFF7E8FF09
:100170000120C0B2002806D07A49098891F0010117
:10018000784A1180404077480078800710D577483A
:1001900000F00CF90420FFF7D3FF0120C0B20028C3
:1001A00006D07049098891F002016E4A11804040E2
:1001B0006C48007840070DD56D4800F0F7F8012035
:1001C000C0B2002806D06749098891F00401654A49
:1001D0001180404063480078000710D5654800F062
:1001E000E5F81020FFF7ACFF0120C0B2002806D0D0
:1001F0005C49098891F008015A4A118040405948E9
:100200000078C00610D55C4800F0D0F82020FFF739
:1002100097FF0120C0B2002806D05249098891F00A
:100220001001504A118040404E48007880060DD59C
:10023000524800F0BBF80120C0B2002806D049495E
:10024000098891F02001474A1180404045480078D4
:10025000400614D54A4800F0A9F84A4800F0A6F82C
:10026000494800F0A3F800F055F8C0B2002806D0C5
:100270003C49098891F040013A4A11804040394890
:100280000088364909880843364908803348008881
:100290003249098848403149088001BD10B5002421
:1002A00000F0D5F8040039480168200000F0D8F8C3
:1002B00040F6B83188421ED334480460344933488C
:1002C000006800F0DBF8334800F070F8304800F0C8
:1002D0006DF820A000F06AF82F4800F067F8402081
:1002E000FFF72EFF2D4800F061F80120FFF72EFFE9
:1002F0002B4800F05BF82B4800881949098808430F
:10030000284908801648008815490988484014493A
:10031000088010BD10B50024002022490978C907C3
:100320000FD5214800F042F800F0A0F80120C0B23B
:10033000002806D01B49098891F00101194A118053
:10034000404018480088002800D101242000C0B295
:1003500010BD00000D0A0000B013000806010020C7
:100360000A01002004010020701400089014000805
:10037000B0140008D0140008F0140008101500088C
:10038000241300083015000884130008F80000202A
:10039000EC000020D0150008D8130008EC1200086B
:1003A000A8120008080100207015000880B501009F
:1003B00001A000F097F801BD2573000080B5012170
:1003C000244800F005F9002806D023480068401CA6
:1003D0002149086000F035F801211E4800F00FF9AE
:1003E00001BD30B585B004000D000121102000F0E2
:1003F0008FF9ADF80840ADF804500020ADF80A00C0
:100400000020ADF8060001A9124800F07DF8012295
:100410004121104800F0D0F801210E4800F0BEF84C
:1004200036208DF8000001208DF8010002208DF8A3
:10043000020001208DF8030000A800F08CF905B03F
:1004400030BD06480068401C0449086070470348F6
:10045000006870470010004000010020FC000020F0
:10046000814201D2401A00E0081A704780B5024864
:10047000FFF79CFF01BD00005813000810B50C00E9
:1004800000220BE00A21B0FBF1F301FB1301303134
:1004900092B211550A21B0FBF1F0521C0028F1D1A3
:1004A000002092B210552100100080B200F002F836
:1004B000200010BD30B4002380B2022290FBF2F481
:1004C000401E09E09BB25A5C80B2455C9BB25D5411
:1004D00080B242545B1C401E9BB2A4B2A342F1D333
:1004E00030BC70470EB400B582B003A9009102463B
:1004F00000AB0121034878440A3000F085F906BCBE
:100500005DF810FBE5100000002203881A00DFF8F8
:10051000F830984212D0DFF8083198420ED0B0F18E
:10052000804F0BD0DFF8E430984207D0DFF8E0309E
:10053000984203D0DFF8DC30984204D14FF68F7335
:100540001A404B881A43DFF8D030984208D0DFF8C1
:10055000CC30984204D04FF6FF431A40CB881A4360
:1005600002808A8882850A880285DFF89C20904272
:100570000FD0DFF8AC2090420BD0DFF8A8209042DB
:1005800007D0DFF8A420904203D0DFF8A0209042EB
:1005900001D1097A0186012181827047C9B20029FF
:1005A00004D0018851F00101018004E001884FF678
:1005B000FE72114001807047D2B2002A03D08289B6
:1005C0001143818103E0828932EA01018181704710
:1005D00030B4002200230024058A0D402B008089BE
:1005E000084004009BB2002B04D0A4B2002C01D020
:1005F000012200E000221000C0B230BC704789B276
:10060000C943018270470000002C014000040040F3
:1006100000080040000C00400010004000140040A2
:1006200000340140004001400044014000480140C6
:1006300030B400220021002300243D4D2D6815F028
:100640000C052A00002A04D0042A05D0082A06D066
:1006500021E03849016020E0364901601DE034495D
:10066000096811F47011324A126812F48033890C4F
:10067000891C002B03D1304A514301600AE02C4A07
:100680001268920303D52C4A5143016002E0294AC3
:100690005143016001E0274901602549096811F0D3
:1006A000F00212092549545C0168E140416020498B
:1006B000096811F4E062120A2049545C4168E14083
:1006C00081601B49096811F46052D20A1B49545CCD
:1006D0004168E140C1601649096811F44042920B3B
:1006E0001749545CC168B1FBF4F1016130BC70473B
:1006F000C9B2002905D013490968084311490860A7
:1007000005E01049096831EA00000E4908607047A9
:10071000C9B2002905D00C49096808430A49086094
:1007200005E00949096831EA000007490860704797
:100730000410024000127A0000093D004000002031
:1007400050000020181002401C10024022490843AB
:1007500022490860704710B4002100220F23C4789A
:10076000002C1DD01D49096811F4E061D1F5E0614C
:10077000090AD1F10402CB404178914082781A40B5
:1007800011430901164A037899540121027812F0A5
:100790001F029140134A0078401142F8201009E0EE
:1007A0000121027812F01F0291400F4A0078401197
:1007B00042F8201010BC7047042806D10B4800688E
:1007C00050F004000949086005E00848006830F06E
:1007D00004000649086070470000FA050CED00E0CF
:1007E00000E400E000E100E080E100E010E000E073
:1007F00070B50446084615461E0004D015F8011BC6
:10080000A047761EFAD170BD2DE9F04784B082462C
:10081000894614461F460DF1000807E001232246D1
:1008200049465046FFF7E4FF8146641C207810B922
:1008300004B0BDE8F0872528F0D1641C14F8010B42
:100840000146252818D058285CD063280ED064288B
:1008500018BF692814D06F2854D0702858D0732836
:100860005DD0752818BF78284CD0DFE7386838602D
:1008700050F8041B3860C9B24846D0478146D5E7D6
:100880003868386050F8045B3860002D03D52D219E
:100890004846D047814664206F2808BF082205D00B
:1008A00040F02001782914BF0A2210220B21AC4607
:1008B000642803D1002D48BFCCF1000CBCFBF2F53D
:1008C00002FB15CC0CF130064B1E5FFA86FC194674
:1008D000BCF13A0FA4BFA0F1510EF44403F808C0D4
:1008E0005FEA050C01D00129E8DA00A80D18484696
:1008F000D1F10B09C2D015F8011BD047B9F101099C
:10090000F9D1BBE73968396051F8045B3960C3E756
:100910003868386050F8045B38607820BCE7386885
:10092000386050F8045B3860284600F009F806008B
:100930004846A3D015F8011BD047761EFAD19DE793
:1009400000F10103810704D010F8011B89B1810770
:10095000FAD10268B2F10131914311F0803F04BF36
:1009600050F8042FF6E710F8011B11B110F8011B25
:10097000FBE7C01A704710B450F8041B81B102683D
:100980001218001D50F8043BDC0744BFA9F1010414
:10099000E31852F8044B43F8044B091FF9D1EBE775
:1009A00010BC7047F0B585B004000D000020002198
:1009B000002200230026AF89002F2600208A4CF653
:1009C000FF710840E98808432082A0894EF6F311A0
:1009D0000840A9882A8911436A8911430843A081E4
:1009E000A08A4FF6FF410840A9890843A08200A8C9
:1009F000FFF71EFE1B48864201D1039900E00299D1
:100A0000A089000407D5192000FB01F029684900DE
:100A1000B0FBF1F206E0192000FB01F02968890023
:100A2000B0FBF1F26420B2FBF0F000010109642395
:100A300003FB1123A189090408D5D90032316422AE
:100A4000B1FBF2F111F00701084307E0190132315F
:100A50006422B1FBF2F111F00F010843208105B0CF
:100A6000F0BD000000380140C9B2002904D08189DE
:100A700051F40051818104E081894DF6FF721140EB
:100A800081817047F0B4002300240025002689B23C
:100A900040F66A17B94206000800C0B24309DBB24B
:100AA00089B211F01F04012010FA04F5012B01D1C5
:100AB0000C3604E0022B01D1103600E01436D2B21D
:100AC000002A03D030682843306002E03068A84331
:100AD0003060F0BC7047C905C90D818070478088BF
:100AE000C005C00D704770B400230024002500220B
:100AF00089B240F66A16B1420A00D2B25509EDB287
:100B000089B211F01F04012212FA04F4012D02D15E
:100B10008289144006E0022D02D1028A144001E0CD
:100B2000828A144089B20B0A9BB2012111FA03F3A5
:100B300000880340002C03D0002B01D0012200E0EC
:100B400000221000C0B270BC704750F8041B61B1A5
:100B500050F8042BD30744BFA9F101039A180023CE
:100B600042F8043B091FFAD1EFE7704780B54F48C0
:100B7000006850F001004D4908604D4800684D493B
:100B800008404B490860494800684B4908404749BC
:100B900008604648006830F48020444908604448B2
:100BA000006830F4FE00424908605FF41F004349CA
:100BB000086000F005F85FF000604149086001BD81
:100BC00080B500F001F801BD82B000200190002046
:100BD00000903648006850F480303449086033484B
:100BE000006810F4003000900198401C01900098BB
:100BF000002803D10198B0F5A06FF0D12B48006810
:100C0000800302D50120009001E0002000900098B0
:100C1000012847D12B48006850F01000294908608E
:100C20002848006880088000264908602548006838
:100C300050F00200234908601D4800681C49086004
:100C40001B4800681A4908601948006850F4806021
:100C5000174908601648006830F47C101449086091
:100C60001348006850F4E810114908600F48006804
:100C700050F080700D4908600C4800688001FBD579
:100C80000B4800688008800009490860084800682F
:100C900050F00200064908600548006810F00C009A
:100CA0000828F9D102B0704700000000001002408F
:100CB000041002400000FFF8FFFFF6FE081002409B
:100CC00008ED00E00020024010B504002100C9B288
:100CD00089B24B48FFF7FFFE494800880006FBD564
:100CE000200010BD10B586B00400012144F20500BB
:100CF000FFF7FEFC4FF40070ADF8000003208DF804
:100D0000020018208DF8030000A93E4800F080F88A
:100D10004FF48060ADF8000004208DF8030000A9B6
:100D2000384800F075F825208DF8040003208DF870
:100D3000050003208DF8060001208DF8070001A8AA
:100D4000FFF709FD02940020ADF80C000020ADF87B
:100D50000E000020ADF810000020ADF814000C20AB
:100D6000ADF8120002A92648FFF71CFE012240F24E
:100D700025512348FFF786FE01212148FFF774FE25
:100D800006B010BD80B540F225511D48FFF7ABFEFF
:100D9000002834D01A48FFF7A2FE1B49097809063B
:100DA0002DD41949097849060DD5C0B20A2803D0B7
:100DB00000201549087022E01348007850F08000A8
:100DC000114908701BE0C0B20D2806D10E4800780A
:100DD00050F040000C49087011E00C490A4A1278A2
:100DE00012F03F02505408480078401C0649087031
:100DF00005480078402802DB00200349087001BD47
:100E000000380140000801400F010020AC00002024
:100E1000F0B400220026002400250023002791F8CA
:100E200003C01CF00F0C624691F803C05FEACC6C63
:100E300001D58B781A430B781B0621D00368002458
:100E400006E0CD78482D02D10125A5400561641C3E
:100E5000082C14D20125A5400E882E40AE42F6D1B2
:100E6000A5000F2616FA05F7BB4312FA05F52B432A
:100E7000CD78282DE5D10125A5404561E7E7036040
:100E80000B88FF2B26DD4368002420E0012514F1A8
:100E90000806B5400E882E40AE4217D1A5000F2699
:100EA00016FA05F7BB4312FA05F52B43CD78282D2A
:100EB00004D1012514F10806B5404561CD78482DCF
:100EC00004D1012514F10806B5400561641C082C05
:100ED000DCD34360F0BC70470022806889B20842CE
:100EE00001D0012200E000221000C0B2704789B298
:100EF0000161704789B2416170477047FEE7FEE7C4
:100F0000FEE7FEE7704770477047704780B50A20DC
:100F100000F084F801213248FFF7DEFF012809D1F3
:100F200030480068002801D1012000E00020C0B254
:100F30002C490860012000F099F801BD80B50A2015
:100F400000F06CF804212848FFF7C6FF002809D1FB
:100F500026480068002801D1012000E00020C0B22E
:100F600022490860042000F081F801BD80B50A2004
:100F700000F054F808211C48FFF7AEFF002809D103
:100F80001B480068002801D1012000E00020C0B209
:100F900017490860082000F069F801BD80B50A20F3
:100FA00000F03CF810211048FFF796FF002813D1FD
:100FB0000E480068002801D1012000E00020C0B2E6
:100FC0000A4908600A480068002801D1012000E0B1
:100FD0000020C0B206490860102000F047F801BDAB
:100FE00000080140A0812142001801409481214263
:100FF0009401234280B57FF00400FFF7DDFB144825
:1010000000681449B0FBF1F01349087012480078E9
:101010004FF47A7148431149088001BD80B20F49ED
:10102000098848430E49086000200E4908600120E5
:101030000D4908600C48006810F001100128F9D033
:101040000020094908600020064908607047000038
:101050005400002000127A000E0100200C01002034
:1010600014E000E018E000E010E000E00149086052
:10107000704700001404014070B504000D00160014
:1010800001214FF40060FFF743FB1848007820402F
:1010900016490870300000F02BF82800C0B200F0AC
:1010A00031F81248007800F04AF800F04EF800F0ED
:1010B00003F800F03AF870BD80B500208DF800000C
:1010C00002208DF8010003208DF8020001208DF828
:1010D000030000A8FFF73FFB01BD80B5034800787F
:1010E00000F027F800F031F801BD000058000020A2
:1010F0000021184A126832F4C072110001431548E9
:101100000160704781B00021009112490968C90946
:10111000C90100910099C0B210F07F00084300900F
:1011200000980C49086001B0704701200A49086026
:101130007047C0B210F07F00084908607047C0B225
:1011400050F080000549086070470020044908609D
:1011500070470000042C0040A4800542002C004091
:10116000082C004080B500F00AF81548FFF71EF97A
:10117000FEF7DEFFFEF7F0FFFFF790F8FAE780B525
:10118000FFF7F4FCFFF736FF40F2CF214FF47A70FF
:10119000FFF727F900F018F800F01CF800F04AF803
:1011A00000F064F84FF41650FFF79CFD4FF4C07246
:1011B0005F217F20FFF760FF0248FFF7F7F801BDCE
:1011C000501500082814000880B54FF4A060FFF700
:1011D000BDFA01BD80B501210820FFF789FA202062
:1011E000ADF8000010208DF8030003208DF80200F8
:1011F00000A90E48FFF70CFE20210C48FFF777FEF0
:1012000001214020FFF774FA2020ADF800001020E3
:101210008DF8030003208DF8020000A90448FFF7B1
:10122000F7FD20210248FFF762FE01BD000C0140DE
:101230000018014080B501210820FFF759FA4FF44A
:101240008070ADF8000010208DF8030003208DF8A9
:10125000020000A90448FFF7DBFD4FF4807102484B
:10126000FFF748FE01BD0000000C014080B50121E0
:101270004420FFF73DFA1C20ADF8000048208DF80F
:10128000030000A90648FFF7C3FD0120ADF80000E8
:1012900028208DF8030000A90248FFF7B9FD01BD21
:1012A00000180140000801400D0A205365742047D2
:1012B00061746577617920686561727462656174D3
:1012C0002074696D6564206576656E747320696E3F
:1012D000746F20536F667454696D65696E674C6FE7
:1012E0006F704576656E74210D0A00000D0A20535B
:1012F000657420476174657761792074696D6564F0
:10130000206576656E747320696E746F20536F6606
:1013100074576172654576656E74496E4C6F6F7077
:10132000210D0A000D0A20476174657761792074E8
:10133000696D6564206576656E747320696E2053EF
:101340006F6674576172654576656E74496E4C6F51
:101350006F70210D0A0000000D0A52756E20696E33
:10136000746F2048656172744265617448616E648F
:101370006C65722066756E6374696F6E20210D0A4C
:10138000000000000D0A2048616E646C65722053F5
:101390006F667454696D65696E674C6F6F704576E2
:1013A000656E742046756E6374696F6E210D0A0058
:1013B0000D0A48616E646C657220536F66745761E4
:1013C0007265496E69742066756E6374696F6E200C
:1013D00021200D0A000000000D0A20476174657786
:1013E0006179206865617274626561742074696DE9
:1013F00065206172726976656420210D0A00000023
:1014000010B5074979441831064C7C44163404E081
:101410000A68081D511888470146A142F8D110BD3D
:101420002C0000004C0000000D0A20486172647717
:1014300061726520496E69742073756365737366A4
:10144000756C6C792021200D0A000000FFF6FFFF6B
:10145000B40000005C000020000000001BF5FFFF4E
:101460005C00000098020000000000200000000066
:101470000D0A4150505F4556454E545F4741544513
:101480005741595F524543564E4554210D0A0000BD
:101490000D0A4150505F4556454E545F47415445F3
:1014A0005741595F4E4554544F454456210D0A004B
:1014B0000D0A4150505F4556454E545F47415445D3
:1014C0005741595F53454E44454456210D0A00008B
:1014D0000D0A4150505F4556454E545F47415445B3
:1014E0005741595F52454356454456210D0A000065
:1014F0000D0A4150505F4556454E545F4741544593
:101500005741595F454456544F4E4554210D0A00EA
:101510000D0A4150505F4556454E545F4741544572
:101520005741595F53454E444E4554210D0A000022
:101530000D0A4150505F4556454E545F4741544552
:101540005741595F54494D45494E47210D0A000006
:101550000D0A57656C636F6D6520546F2047617489
:1015600065776179204170702021200D0A0000000C
:101570000D0A4150505F545F4556454E545F4845F3
:1015800041525442454154210D0A000000F00BF82D
:10159000002801D0FFF734FF0020C046C046FFF707
:1015A000E1FD00F002F80120704700F001B80000F2
:1015B0000746384600F002F8FBE7000080B5C04659
:1015C000C046024A11001820ABBEFBE7260002000D
:1015D0000D0A4865617274426561744C74204E6FE7
:1015E0007774696D653D000038B504460D462846A0
:1015F00000F006F8A84218BF0024204632BD0000C3
:101600000149FFF761BB00BF00000020014880478F
:10161000014800476D0B00081D160008C046C04673
:10162000C046C046FFF7B2FFFFF7FEBFFFF7FEBFA1
:10163000FFF7FEBFFFF7FEBFFFF7FEBFFFF7FEBFDE
:10164000FFF7FEBFFFF7FEBFFFF7FEBFFFF7FEBFCE
:10165000FFF7FEBFFFF7FEBFFFF7FEBFFFF7FEBFBE
:10166000FFF7FEBFFFF7FEBFFFF7FEBFFFF7FEBFAE
:10167000FFF7FEBFFFF7FEBFFFF7FEBFFFF7FEBF9E
:10168000FFF7FEBFFFF7FEBFFFF7FEBFFFF7FEBF8E
:10169000FFF7FEBFFFF7FEBFFFF7FEBFFFF7FEBF7E
:1016A000FFF7FEBFFFF7FEBFFFF7FEBFFFF7FEBF6E
:1016B000FFF7FEBFFFF7FEBFFFF7FEBFFFF7FEBF5E
:1016C000FFF7FEBFFFF7FEBFFFF7FEBFFFF7FEBF4E
:1016D000FFF7FEBFFFF7FEBFFFF7FEBFFFF7FEBF3E
:1016E000FFF7FEBFFFF7FEBFFFF7FEBFFFF7FEBF2E
:1016F000FFF7FEBFFFF7FEBFFFF7FEBF02040101C9
:101700005C000020AC0000205C0000205C00002099
:101710005C0000203D0000202400002000000000AC
:1017200000000000000000000000000000000000B9
:1017300000000000000000000000000000000000A9
:101740000102030401020304060708090204060853
:0817500000A24A047F00000022
:040000050800161DBC
:00000001FF
